{
  "_format": "hh-sol-artifact-1",
  "contractName": "SimpleBank",
  "sourceName": "contracts/SimpleBank.sol",
  "abi": [
    {
      "inputs": [],
      "name": "deposit",
      "outputs": [],
      "stateMutability": "payable",
      "type": "function"
    },
    {
      "inputs": [],
      "name": "getBalance",
      "outputs": [
        {
          "internalType": "uint256",
          "name": "",
          "type": "uint256"
        }
      ],
      "stateMutability": "view",
      "type": "function"
    },
    {
      "inputs": [
        {
          "internalType": "uint256",
          "name": "amount",
          "type": "uint256"
        }
      ],
      "name": "withdraw",
      "outputs": [],
      "stateMutability": "nonpayable",
      "type": "function"
    }
  ],
  "bytecode": "0x608060405234801561001057600080fd5b5061025d806100206000396000f3fe6080604052600436106100345760003560e01c806312065fe0146100395780632e1a7d4d14610068578063d0e30db01461008a575b600080fd5b34801561004557600080fd5b503360009081526020819052604090205460405190815260200160405180910390f35b34801561007457600080fd5b506100886100833660046101cc565b610092565b005b6100886101a6565b336000908152602081905260409020548111156100ee5760405162461bcd60e51b815260206004820152601560248201527424b739bab33334b1b4b2b73a103130b630b731b29760591b60448201526064015b60405180910390fd5b604051600090339083908381818185875af1925050503d8060008114610130576040519150601f19603f3d011682016040523d82523d6000602084013e610135565b606091505b505090508061017e5760405162461bcd60e51b81526020600482015260156024820152742330b4b632b2103a379039b2b7321022ba3432b91760591b60448201526064016100e5565b336000908152602081905260408120805484929061019d9084906101fb565b90915550505050565b33600090815260208190526040812080543492906101c5908490610214565b9091555050565b6000602082840312156101de57600080fd5b5035919050565b634e487b7160e01b600052601160045260246000fd5b8181038181111561020e5761020e6101e5565b92915050565b8082018082111561020e5761020e6101e556fea264697066735822122051a43937962d3d2706f1c7adf870b995311588677fb3143f75c80caf5bd9058264736f6c63430008180033",
  "linkReferences": {},
  "deployedLinkReferences": {}
}