{
  "_format": "hh-sol-artifact-1",
  "contractName": "SimpleBankUUPS",
  "sourceName": "contracts/SimplebankUUPS.sol",
  "abi": [
    {
      "inputs": [
        {
          "internalType": "address",
          "name": "target",
          "type": "address"
        }
      ],
      "name": "AddressEmptyCode",
      "type": "error"
    },
    {
      "inputs": [
        {
          "internalType": "address",
          "name": "implementation",
          "type": "address"
        }
      ],
      "name": "ERC1967InvalidImplementation",
      "type": "error"
    },
    {
      "inputs": [],
      "name": "ERC1967NonPayable",
      "type": "error"
    },
    {
      "inputs": [],
      "name": "FailedInnerCall",
      "type": "error"
    },
    {
      "inputs": [],
      "name": "InvalidInitialization",
      "type": "error"
    },
    {
      "inputs": [],
      "name": "NotInitializing",
      "type": "error"
    },
    {
      "inputs": [
        {
          "internalType": "address",
          "name": "owner",
          "type": "address"
        }
      ],
      "name": "OwnableInvalidOwner",
      "type": "error"
    },
    {
      "inputs": [
        {
          "internalType": "address",
          "name": "account",
          "type": "address"
        }
      ],
      "name": "OwnableUnauthorizedAccount",
      "type": "error"
    },
    {
      "inputs": [],
      "name": "UUPSUnauthorizedCallContext",
      "type": "error"
    },
    {
      "inputs": [
        {
          "internalType": "bytes32",
          "name": "slot",
          "type": "bytes32"
        }
      ],
      "name": "UUPSUnsupportedProxiableUUID",
      "type": "error"
    },
    {
      "anonymous": false,
      "inputs": [
        {
          "indexed": false,
          "internalType": "uint64",
          "name": "version",
          "type": "uint64"
        }
      ],
      "name": "Initialized",
      "type": "event"
    },
    {
      "anonymous": false,
      "inputs": [
        {
          "indexed": true,
          "internalType": "address",
          "name": "previousOwner",
          "type": "address"
        },
        {
          "indexed": true,
          "internalType": "address",
          "name": "newOwner",
          "type": "address"
        }
      ],
      "name": "OwnershipTransferred",
      "type": "event"
    },
    {
      "anonymous": false,
      "inputs": [
        {
          "indexed": true,
          "internalType": "address",
          "name": "implementation",
          "type": "address"
        }
      ],
      "name": "Upgraded",
      "type": "event"
    },
    {
      "inputs": [],
      "name": "UPGRADE_INTERFACE_VERSION",
      "outputs": [
        {
          "internalType": "string",
          "name": "",
          "type": "string"
        }
      ],
      "stateMutability": "view",
      "type": "function"
    },
    {
      "inputs": [],
      "name": "deposit",
      "outputs": [],
      "stateMutability": "payable",
      "type": "function"
    },
    {
      "inputs": [],
      "name": "getBalance",
      "outputs": [
        {
          "internalType": "uint256",
          "name": "",
          "type": "uint256"
        }
      ],
      "stateMutability": "view",
      "type": "function"
    },
    {
      "inputs": [],
      "name": "initialize",
      "outputs": [],
      "stateMutability": "nonpayable",
      "type": "function"
    },
    {
      "inputs": [],
      "name": "owner",
      "outputs": [
        {
          "internalType": "address",
          "name": "",
          "type": "address"
        }
      ],
      "stateMutability": "view",
      "type": "function"
    },
    {
      "inputs": [],
      "name": "proxiableUUID",
      "outputs": [
        {
          "internalType": "bytes32",
          "name": "",
          "type": "bytes32"
        }
      ],
      "stateMutability": "view",
      "type": "function"
    },
    {
      "inputs": [],
      "name": "renounceOwnership",
      "outputs": [],
      "stateMutability": "nonpayable",
      "type": "function"
    },
    {
      "inputs": [
        {
          "internalType": "address",
          "name": "newOwner",
          "type": "address"
        }
      ],
      "name": "transferOwnership",
      "outputs": [],
      "stateMutability": "nonpayable",
      "type": "function"
    },
    {
      "inputs": [
        {
          "internalType": "address",
          "name": "newImplementation",
          "type": "address"
        },
        {
          "internalType": "bytes",
          "name": "data",
          "type": "bytes"
        }
      ],
      "name": "upgradeToAndCall",
      "outputs": [],
      "stateMutability": "payable",
      "type": "function"
    },
    {
      "inputs": [
        {
          "internalType": "uint256",
          "name": "amount",
          "type": "uint256"
        }
      ],
      "name": "withdraw",
      "outputs": [],
      "stateMutability": "nonpayable",
      "type": "function"
    }
  ],
  "bytecode": "0x60a06040523060805234801561001457600080fd5b50608051610bd561003e600039600081816104d2015281816104fb01526106410152610bd56000f3fe6080604052600436106100915760003560e01c80638129fc1c116100595780638129fc1c146101265780638da5cb5b1461013b578063ad3cb1cc14610182578063d0e30db0146101c0578063f2fde38b146101c857600080fd5b806312065fe0146100965780632e1a7d4d146100c75780634f1ef286146100e957806352d1902d146100fc578063715018a614610111575b600080fd5b3480156100a257600080fd5b50336000908152602081905260409020545b6040519081526020015b60405180910390f35b3480156100d357600080fd5b506100e76100e236600461098f565b6101e8565b005b6100e76100f73660046109da565b6102fc565b34801561010857600080fd5b506100b461031b565b34801561011d57600080fd5b506100e7610338565b34801561013257600080fd5b506100e761034c565b34801561014757600080fd5b507f9016d09d72d40fdae2fd8ceac6b6234c7706214fd39c1cd1e609a0528c199300546040516001600160a01b0390911681526020016100be565b34801561018e57600080fd5b506101b3604051806040016040528060058152602001640352e302e360dc1b81525081565b6040516100be9190610ac0565b6100e7610463565b3480156101d457600080fd5b506100e76101e3366004610af3565b610489565b336000908152602081905260409020548111156102445760405162461bcd60e51b815260206004820152601560248201527424b739bab33334b1b4b2b73a103130b630b731b29760591b60448201526064015b60405180910390fd5b604051600090339083908381818185875af1925050503d8060008114610286576040519150601f19603f3d011682016040523d82523d6000602084013e61028b565b606091505b50509050806102d45760405162461bcd60e51b81526020600482015260156024820152742330b4b632b2103a379039b2b7321022ba3432b91760591b604482015260640161023b565b33600090815260208190526040812080548492906102f3908490610b24565b90915550505050565b6103046104c7565b61030d8261056c565b6103178282610574565b5050565b6000610325610636565b50600080516020610b8083398151915290565b61034061067f565b61034a60006106da565b565b7ff0c57e16840df040f15088dc2f81fe391c3923bec73e23a9662efc9c229c6a008054600160401b810460ff16159067ffffffffffffffff166000811580156103925750825b905060008267ffffffffffffffff1660011480156103af5750303b155b9050811580156103bd575080155b156103db5760405163f92ee8a960e01b815260040160405180910390fd5b845467ffffffffffffffff19166001178555831561040557845460ff60401b1916600160401b1785555b61040e3361074b565b61041661075c565b831561045c57845460ff60401b19168555604051600181527fc7f505b2f371ae2175ee4913f4499e1f2633a7b5936321eed1cdaeb6115181d29060200160405180910390a15b5050505050565b3360009081526020819052604081208054349290610482908490610b37565b9091555050565b61049161067f565b6001600160a01b0381166104bb57604051631e4fbdf760e01b81526000600482015260240161023b565b6104c4816106da565b50565b306001600160a01b037f000000000000000000000000000000000000000000000000000000000000000016148061054e57507f00000000000000000000000000000000000000000000000000000000000000006001600160a01b0316610542600080516020610b80833981519152546001600160a01b031690565b6001600160a01b031614155b1561034a5760405163703e46dd60e11b815260040160405180910390fd5b6104c461067f565b816001600160a01b03166352d1902d6040518163ffffffff1660e01b8152600401602060405180830381865afa9250505080156105ce575060408051601f3d908101601f191682019092526105cb91810190610b4a565b60015b6105f657604051634c9c8ce360e01b81526001600160a01b038316600482015260240161023b565b600080516020610b80833981519152811461062757604051632a87526960e21b81526004810182905260240161023b565b6106318383610764565b505050565b306001600160a01b037f0000000000000000000000000000000000000000000000000000000000000000161461034a5760405163703e46dd60e11b815260040160405180910390fd5b336106b17f9016d09d72d40fdae2fd8ceac6b6234c7706214fd39c1cd1e609a0528c199300546001600160a01b031690565b6001600160a01b03161461034a5760405163118cdaa760e01b815233600482015260240161023b565b7f9016d09d72d40fdae2fd8ceac6b6234c7706214fd39c1cd1e609a0528c19930080546001600160a01b031981166001600160a01b03848116918217845560405192169182907f8be0079c531659141344cd1fd0a4f28419497f9722a3daafe3b4186f6b6457e090600090a3505050565b6107536107ba565b6104c481610803565b61034a6107ba565b61076d8261080b565b6040516001600160a01b038316907fbc7cd75a20ee27fd9adebab32041f755214dbc6bffa90cc0225b39da2e5c2d3b90600090a28051156107b2576106318282610870565b6103176108e8565b7ff0c57e16840df040f15088dc2f81fe391c3923bec73e23a9662efc9c229c6a0054600160401b900460ff1661034a57604051631afcd79f60e31b815260040160405180910390fd5b6104916107ba565b806001600160a01b03163b60000361084157604051634c9c8ce360e01b81526001600160a01b038216600482015260240161023b565b600080516020610b8083398151915280546001600160a01b0319166001600160a01b0392909216919091179055565b6060600080846001600160a01b03168460405161088d9190610b63565b600060405180830381855af49150503d80600081146108c8576040519150601f19603f3d011682016040523d82523d6000602084013e6108cd565b606091505b50915091506108dd858383610907565b925050505b92915050565b341561034a5760405163b398979f60e01b815260040160405180910390fd5b60608261091c5761091782610966565b61095f565b815115801561093357506001600160a01b0384163b155b1561095c57604051639996b31560e01b81526001600160a01b038516600482015260240161023b565b50805b9392505050565b8051156109765780518082602001fd5b604051630a12f52160e11b815260040160405180910390fd5b6000602082840312156109a157600080fd5b5035919050565b80356001600160a01b03811681146109bf57600080fd5b919050565b634e487b7160e01b600052604160045260246000fd5b600080604083850312156109ed57600080fd5b6109f6836109a8565b9150602083013567ffffffffffffffff80821115610a1357600080fd5b818501915085601f830112610a2757600080fd5b813581811115610a3957610a396109c4565b604051601f8201601f19908116603f01168101908382118183101715610a6157610a616109c4565b81604052828152886020848701011115610a7a57600080fd5b8260208601602083013760006020848301015280955050505050509250929050565b60005b83811015610ab7578181015183820152602001610a9f565b50506000910152565b6020815260008251806020840152610adf816040850160208701610a9c565b601f01601f19169190910160400192915050565b600060208284031215610b0557600080fd5b61095f826109a8565b634e487b7160e01b600052601160045260246000fd5b818103818111156108e2576108e2610b0e565b808201808211156108e2576108e2610b0e565b600060208284031215610b5c57600080fd5b5051919050565b60008251610b75818460208701610a9c565b919091019291505056fe360894a13ba1a3210667c828492db98dca3e2076cc3735a920a3ca505d382bbca264697066735822122084dcd355d41ddc4b3487bb24de4fc4c7f508b5140e34ef0807399ce51fcf0d5e64736f6c63430008180033",
  "linkReferences": {},
  "deployedLinkReferences": {}
}