{"contracts/ExamLedger.sol":{"ExamLedger":{"abi":[{"inputs":[{"internalType":"address","name":"_holder","type":"address"},{"internalType":"string","name":"_ipfsCid","type":"string"}],"name":"addHolderRecord","outputs":[],"stateMutability":"nonpayable","type":"function"},{"inputs":[],"name":"deployedBy","outputs":[{"internalType":"string","name":"","type":"string"}],"stateMutability":"pure","type":"function"},{"inputs":[],"name":"getAssignedSigner","outputs":[{"components":[{"internalType":"string","name":"_privateKey","type":"string"},{"internalType":"address","name":"_address","type":"address"}],"internalType":"struct IKeyGenerator.KeyPair","name":"","type":"tuple"}],"stateMutability":"view","type":"function"},{"inputs":[{"internalType":"address","name":"_holder","type":"address"}],"name":"getHolderRecord","outputs":[{"internalType":"string","name":"","type":"string"}],"stateMutability":"view","type":"function"},{"inputs":[{"internalType":"address","name":"_holder","type":"address"}],"name":"getHolderTokens","outputs":[{"internalType":"uint256","name":"","type":"uint256"}],"stateMutability":"view","type":"function"},{"inputs":[{"internalType":"address","name":"_recipient","type":"address"}],"name":"getTokenDrop","outputs":[],"stateMutability":"nonpayable","type":"function"},{"inputs":[],"name":"initialize","outputs":[],"stateMutability":"nonpayable","type":"function"}],"evm":{"bytecode":{"linkReferences":{},"object":"608060405234801561001057600080fd5b5061082d806100206000396000f3fe608060405234801561001057600080fd5b506004361061007d5760003560e01c80638129fc1c1161005b5780638129fc1c146100f15780639c54a6b914610140578063debfc2f214610153578063e547e6931461016657600080fd5b80630522766514610082578063161aea21146100a05780631f21cc91146100c0575b600080fd5b61008a61019d565b60405161009791906103fc565b60405180910390f35b6100b36100ae366004610451565b610232565b6040516100979190610475565b6040805180820190915260158152744465706c6f7965642062792044696e6f204b72736f60581b60208201526100b3565b61013e600080546001600160a01b0319908116732379bb13cce0ea1761a7a5cacdf0a786145764911790915560018054909116736a71b2571d8326f350753cce4c6c5c129cb6cb80179055565b005b61013e61014e366004610520565b6102de565b61013e610161366004610451565b610305565b61018f610174366004610451565b6001600160a01b031660009081526002602052604090205490565b604051908152602001610097565b604080518082019091526060815260006020820152600160009054906101000a90046001600160a01b03166001600160a01b031663d1283f336040518163ffffffff1660e01b8152600401600060405180830381865afa158015610205573d6000803e3d6000fd5b505050506040513d6000823e601f3d908101601f1916820160405261022d91908101906105b3565b905090565b6001600160a01b03811660009081526003602052604090208054606091906102599061066d565b80601f01602080910402602001604051908101604052809291908181526020018280546102859061066d565b80156102d25780601f106102a7576101008083540402835291602001916102d2565b820191906000526020600020905b8154815290600101906020018083116102b557829003601f168201915b50505050509050919050565b6001600160a01b038216600090815260036020526040902061030082826106f7565b505050565b60008054604051636f5fe17960e11b81526001600160a01b0384811660048301529091169063debfc2f2906024016020604051808303816000875af1158015610352573d6000803e3d6000fd5b505050506040513d601f19601f8201168201806040525081019061037691906107b7565b6001600160a01b0383166000908152600260205260408120805492935083929091906103a39084906107d0565b90915550505050565b60005b838110156103c75781810151838201526020016103af565b50506000910152565b600081518084526103e88160208601602086016103ac565b601f01601f19169290920160200192915050565b60208152600082516040602084015261041860608401826103d0565b602094909401516001600160a01b0316604093909301929092525090919050565b6001600160a01b038116811461044e57600080fd5b50565b60006020828403121561046357600080fd5b813561046e81610439565b9392505050565b60208152600061046e60208301846103d0565b634e487b7160e01b600052604160045260246000fd5b6040805190810167ffffffffffffffff811182821017156104c1576104c1610488565b60405290565b604051601f8201601f1916810167ffffffffffffffff811182821017156104f0576104f0610488565b604052919050565b600067ffffffffffffffff82111561051257610512610488565b50601f01601f191660200190565b6000806040838503121561053357600080fd5b823561053e81610439565b9150602083013567ffffffffffffffff81111561055a57600080fd5b8301601f8101851361056b57600080fd5b803561057e610579826104f8565b6104c7565b81815286602083850101111561059357600080fd5b816020840160208301376000602083830101528093505050509250929050565b600060208083850312156105c657600080fd5b825167ffffffffffffffff808211156105de57600080fd5b90840190604082870312156105f257600080fd5b6105fa61049e565b82518281111561060957600080fd5b83019150601f8201871361061c57600080fd5b815161062a610579826104f8565b818152888683860101111561063e57600080fd5b61064d828783018887016103ac565b825250918301519161065e83610439565b92830191909152509392505050565b600181811c9082168061068157607f821691505b6020821081036106a157634e487b7160e01b600052602260045260246000fd5b50919050565b601f821115610300576000816000526020600020601f850160051c810160208610156106d05750805b601f850160051c820191505b818110156106ef578281556001016106dc565b505050505050565b815167ffffffffffffffff81111561071157610711610488565b6107258161071f845461066d565b846106a7565b602080601f83116001811461075a57600084156107425750858301515b600019600386901b1c1916600185901b1785556106ef565b600085815260208120601f198616915b828110156107895788860151825594840194600190910190840161076a565b50858210156107a75787850151600019600388901b60f8161c191681555b5050505050600190811b01905550565b6000602082840312156107c957600080fd5b5051919050565b808201808211156107f157634e487b7160e01b600052601160045260246000fd5b9291505056fea264697066735822122046b3a714d9e6cedaa8c51bd8d277a46b1dbc42a77080e6200bf06e8ef704b85664736f6c63430008180033","opcodes":"PUSH1 0x80 PUSH1 0x40 MSTORE CALLVALUE DUP1 ISZERO PUSH2 0x10 JUMPI PUSH1 0x0 DUP1 REVERT JUMPDEST POP PUSH2 0x82D DUP1 PUSH2 0x20 PUSH1 0x0 CODECOPY PUSH1 0x0 RETURN INVALID PUSH1 0x80 PUSH1 0x40 MSTORE CALLVALUE DUP1 ISZERO PUSH2 0x10 JUMPI PUSH1 0x0 DUP1 REVERT JUMPDEST POP PUSH1 0x4 CALLDATASIZE LT PUSH2 0x7D JUMPI PUSH1 0x0 CALLDATALOAD PUSH1 0xE0 SHR DUP1 PUSH4 0x8129FC1C GT PUSH2 0x5B JUMPI DUP1 PUSH4 0x8129FC1C EQ PUSH2 0xF1 JUMPI DUP1 PUSH4 0x9C54A6B9 EQ PUSH2 0x140 JUMPI DUP1 PUSH4 0xDEBFC2F2 EQ PUSH2 0x153 JUMPI DUP1 PUSH4 0xE547E693 EQ PUSH2 0x166 JUMPI PUSH1 0x0 DUP1 REVERT JUMPDEST DUP1 PUSH4 0x5227665 EQ PUSH2 0x82 JUMPI DUP1 PUSH4 0x161AEA21 EQ PUSH2 0xA0 JUMPI DUP1 PUSH4 0x1F21CC91 EQ PUSH2 0xC0 JUMPI JUMPDEST PUSH1 0x0 DUP1 REVERT JUMPDEST PUSH2 0x8A PUSH2 0x19D JUMP JUMPDEST PUSH1 0x40 MLOAD PUSH2 0x97 SWAP2 SWAP1 PUSH2 0x3FC JUMP JUMPDEST PUSH1 0x40 MLOAD DUP1 SWAP2 SUB SWAP1 RETURN JUMPDEST PUSH2 0xB3 PUSH2 0xAE CALLDATASIZE PUSH1 0x4 PUSH2 0x451 JUMP JUMPDEST PUSH2 0x232 JUMP JUMPDEST PUSH1 0x40 MLOAD PUSH2 0x97 SWAP2 SWAP1 PUSH2 0x475 JUMP JUMPDEST PUSH1 0x40 DUP1 MLOAD DUP1 DUP3 ADD SWAP1 SWAP2 MSTORE PUSH1 0x15 DUP2 MSTORE PUSH21 0x4465706C6F7965642062792044696E6F204B72736F PUSH1 0x58 SHL PUSH1 0x20 DUP3 ADD MSTORE PUSH2 0xB3 JUMP JUMPDEST PUSH2 0x13E PUSH1 0x0 DUP1 SLOAD PUSH1 0x1 PUSH1 0x1 PUSH1 0xA0 SHL SUB NOT SWAP1 DUP2 AND PUSH20 0x2379BB13CCE0EA1761A7A5CACDF0A78614576491 OR SWAP1 SWAP2 SSTORE PUSH1 0x1 DUP1 SLOAD SWAP1 SWAP2 AND PUSH20 0x6A71B2571D8326F350753CCE4C6C5C129CB6CB80 OR SWAP1 SSTORE JUMP JUMPDEST STOP JUMPDEST PUSH2 0x13E PUSH2 0x14E CALLDATASIZE PUSH1 0x4 PUSH2 0x520 JUMP JUMPDEST PUSH2 0x2DE JUMP JUMPDEST PUSH2 0x13E PUSH2 0x161 CALLDATASIZE PUSH1 0x4 PUSH2 0x451 JUMP JUMPDEST PUSH2 0x305 JUMP JUMPDEST PUSH2 0x18F PUSH2 0x174 CALLDATASIZE PUSH1 0x4 PUSH2 0x451 JUMP JUMPDEST PUSH1 0x1 PUSH1 0x1 PUSH1 0xA0 SHL SUB AND PUSH1 0x0 SWAP1 DUP2 MSTORE PUSH1 0x2 PUSH1 0x20 MSTORE PUSH1 0x40 SWAP1 KECCAK256 SLOAD SWAP1 JUMP JUMPDEST PUSH1 0x40 MLOAD SWAP1 DUP2 MSTORE PUSH1 0x20 ADD PUSH2 0x97 JUMP JUMPDEST PUSH1 0x40 DUP1 MLOAD DUP1 DUP3 ADD SWAP1 SWAP2 MSTORE PUSH1 0x60 DUP2 MSTORE PUSH1 0x0 PUSH1 0x20 DUP3 ADD MSTORE PUSH1 0x1 PUSH1 0x0 SWAP1 SLOAD SWAP1 PUSH2 0x100 EXP SWAP1 DIV PUSH1 0x1 PUSH1 0x1 PUSH1 0xA0 SHL SUB AND PUSH1 0x1 PUSH1 0x1 PUSH1 0xA0 SHL SUB AND PUSH4 0xD1283F33 PUSH1 0x40 MLOAD DUP2 PUSH4 0xFFFFFFFF AND PUSH1 0xE0 SHL DUP2 MSTORE PUSH1 0x4 ADD PUSH1 0x0 PUSH1 0x40 MLOAD DUP1 DUP4 SUB DUP2 DUP7 GAS STATICCALL ISZERO DUP1 ISZERO PUSH2 0x205 JUMPI RETURNDATASIZE PUSH1 0x0 DUP1 RETURNDATACOPY RETURNDATASIZE PUSH1 0x0 REVERT JUMPDEST POP POP POP POP PUSH1 0x40 MLOAD RETURNDATASIZE PUSH1 0x0 DUP3 RETURNDATACOPY PUSH1 0x1F RETURNDATASIZE SWAP1 DUP2 ADD PUSH1 0x1F NOT AND DUP3 ADD PUSH1 0x40 MSTORE PUSH2 0x22D SWAP2 SWAP1 DUP2 ADD SWAP1 PUSH2 0x5B3 JUMP JUMPDEST SWAP1 POP SWAP1 JUMP JUMPDEST PUSH1 0x1 PUSH1 0x1 PUSH1 0xA0 SHL SUB DUP2 AND PUSH1 0x0 SWAP1 DUP2 MSTORE PUSH1 0x3 PUSH1 0x20 MSTORE PUSH1 0x40 SWAP1 KECCAK256 DUP1 SLOAD PUSH1 0x60 SWAP2 SWAP1 PUSH2 0x259 SWAP1 PUSH2 0x66D JUMP JUMPDEST DUP1 PUSH1 0x1F ADD PUSH1 0x20 DUP1 SWAP2 DIV MUL PUSH1 0x20 ADD PUSH1 0x40 MLOAD SWAP1 DUP2 ADD PUSH1 0x40 MSTORE DUP1 SWAP3 SWAP2 SWAP1 DUP2 DUP2 MSTORE PUSH1 0x20 ADD DUP3 DUP1 SLOAD PUSH2 0x285 SWAP1 PUSH2 0x66D JUMP JUMPDEST DUP1 ISZERO PUSH2 0x2D2 JUMPI DUP1 PUSH1 0x1F LT PUSH2 0x2A7 JUMPI PUSH2 0x100 DUP1 DUP4 SLOAD DIV MUL DUP4 MSTORE SWAP2 PUSH1 0x20 ADD SWAP2 PUSH2 0x2D2 JUMP JUMPDEST DUP3 ADD SWAP2 SWAP1 PUSH1 0x0 MSTORE PUSH1 0x20 PUSH1 0x0 KECCAK256 SWAP1 JUMPDEST DUP2 SLOAD DUP2 MSTORE SWAP1 PUSH1 0x1 ADD SWAP1 PUSH1 0x20 ADD DUP1 DUP4 GT PUSH2 0x2B5 JUMPI DUP3 SWAP1 SUB PUSH1 0x1F AND DUP3 ADD SWAP2 JUMPDEST POP POP POP POP POP SWAP1 POP SWAP2 SWAP1 POP JUMP JUMPDEST PUSH1 0x1 PUSH1 0x1 PUSH1 0xA0 SHL SUB DUP3 AND PUSH1 0x0 SWAP1 DUP2 MSTORE PUSH1 0x3 PUSH1 0x20 MSTORE PUSH1 0x40 SWAP1 KECCAK256 PUSH2 0x300 DUP3 DUP3 PUSH2 0x6F7 JUMP JUMPDEST POP POP POP JUMP JUMPDEST PUSH1 0x0 DUP1 SLOAD PUSH1 0x40 MLOAD PUSH4 0x6F5FE179 PUSH1 0xE1 SHL DUP2 MSTORE PUSH1 0x1 PUSH1 0x1 PUSH1 0xA0 SHL SUB DUP5 DUP2 AND PUSH1 0x4 DUP4 ADD MSTORE SWAP1 SWAP2 AND SWAP1 PUSH4 0xDEBFC2F2 SWAP1 PUSH1 0x24 ADD PUSH1 0x20 PUSH1 0x40 MLOAD DUP1 DUP4 SUB DUP2 PUSH1 0x0 DUP8 GAS CALL ISZERO DUP1 ISZERO PUSH2 0x352 JUMPI RETURNDATASIZE PUSH1 0x0 DUP1 RETURNDATACOPY RETURNDATASIZE PUSH1 0x0 REVERT JUMPDEST POP POP POP POP PUSH1 0x40 MLOAD RETURNDATASIZE PUSH1 0x1F NOT PUSH1 0x1F DUP3 ADD AND DUP3 ADD DUP1 PUSH1 0x40 MSTORE POP DUP2 ADD SWAP1 PUSH2 0x376 SWAP2 SWAP1 PUSH2 0x7B7 JUMP JUMPDEST PUSH1 0x1 PUSH1 0x1 PUSH1 0xA0 SHL SUB DUP4 AND PUSH1 0x0 SWAP1 DUP2 MSTORE PUSH1 0x2 PUSH1 0x20 MSTORE PUSH1 0x40 DUP2 KECCAK256 DUP1 SLOAD SWAP3 SWAP4 POP DUP4 SWAP3 SWAP1 SWAP2 SWAP1 PUSH2 0x3A3 SWAP1 DUP5 SWAP1 PUSH2 0x7D0 JUMP JUMPDEST SWAP1 SWAP2 SSTORE POP POP POP POP JUMP JUMPDEST PUSH1 0x0 JUMPDEST DUP4 DUP2 LT ISZERO PUSH2 0x3C7 JUMPI DUP2 DUP2 ADD MLOAD DUP4 DUP3 ADD MSTORE PUSH1 0x20 ADD PUSH2 0x3AF JUMP JUMPDEST POP POP PUSH1 0x0 SWAP2 ADD MSTORE JUMP JUMPDEST PUSH1 0x0 DUP2 MLOAD DUP1 DUP5 MSTORE PUSH2 0x3E8 DUP2 PUSH1 0x20 DUP7 ADD PUSH1 0x20 DUP7 ADD PUSH2 0x3AC JUMP JUMPDEST PUSH1 0x1F ADD PUSH1 0x1F NOT AND SWAP3 SWAP1 SWAP3 ADD PUSH1 0x20 ADD SWAP3 SWAP2 POP POP JUMP JUMPDEST PUSH1 0x20 DUP2 MSTORE PUSH1 0x0 DUP3 MLOAD PUSH1 0x40 PUSH1 0x20 DUP5 ADD MSTORE PUSH2 0x418 PUSH1 0x60 DUP5 ADD DUP3 PUSH2 0x3D0 JUMP JUMPDEST PUSH1 0x20 SWAP5 SWAP1 SWAP5 ADD MLOAD PUSH1 0x1 PUSH1 0x1 PUSH1 0xA0 SHL SUB AND PUSH1 0x40 SWAP4 SWAP1 SWAP4 ADD SWAP3 SWAP1 SWAP3 MSTORE POP SWAP1 SWAP2 SWAP1 POP JUMP JUMPDEST PUSH1 0x1 PUSH1 0x1 PUSH1 0xA0 SHL SUB DUP2 AND DUP2 EQ PUSH2 0x44E JUMPI PUSH1 0x0 DUP1 REVERT JUMPDEST POP JUMP JUMPDEST PUSH1 0x0 PUSH1 0x20 DUP3 DUP5 SUB SLT ISZERO PUSH2 0x463 JUMPI PUSH1 0x0 DUP1 REVERT JUMPDEST DUP2 CALLDATALOAD PUSH2 0x46E DUP2 PUSH2 0x439 JUMP JUMPDEST SWAP4 SWAP3 POP POP POP JUMP JUMPDEST PUSH1 0x20 DUP2 MSTORE PUSH1 0x0 PUSH2 0x46E PUSH1 0x20 DUP4 ADD DUP5 PUSH2 0x3D0 JUMP JUMPDEST PUSH4 0x4E487B71 PUSH1 0xE0 SHL PUSH1 0x0 MSTORE PUSH1 0x41 PUSH1 0x4 MSTORE PUSH1 0x24 PUSH1 0x0 REVERT JUMPDEST PUSH1 0x40 DUP1 MLOAD SWAP1 DUP2 ADD PUSH8 0xFFFFFFFFFFFFFFFF DUP2 GT DUP3 DUP3 LT OR ISZERO PUSH2 0x4C1 JUMPI PUSH2 0x4C1 PUSH2 0x488 JUMP JUMPDEST PUSH1 0x40 MSTORE SWAP1 JUMP JUMPDEST PUSH1 0x40 MLOAD PUSH1 0x1F DUP3 ADD PUSH1 0x1F NOT AND DUP2 ADD PUSH8 0xFFFFFFFFFFFFFFFF DUP2 GT DUP3 DUP3 LT OR ISZERO PUSH2 0x4F0 JUMPI PUSH2 0x4F0 PUSH2 0x488 JUMP JUMPDEST PUSH1 0x40 MSTORE SWAP2 SWAP1 POP JUMP JUMPDEST PUSH1 0x0 PUSH8 0xFFFFFFFFFFFFFFFF DUP3 GT ISZERO PUSH2 0x512 JUMPI PUSH2 0x512 PUSH2 0x488 JUMP JUMPDEST POP PUSH1 0x1F ADD PUSH1 0x1F NOT AND PUSH1 0x20 ADD SWAP1 JUMP JUMPDEST PUSH1 0x0 DUP1 PUSH1 0x40 DUP4 DUP6 SUB SLT ISZERO PUSH2 0x533 JUMPI PUSH1 0x0 DUP1 REVERT JUMPDEST DUP3 CALLDATALOAD PUSH2 0x53E DUP2 PUSH2 0x439 JUMP JUMPDEST SWAP2 POP PUSH1 0x20 DUP4 ADD CALLDATALOAD PUSH8 0xFFFFFFFFFFFFFFFF DUP2 GT ISZERO PUSH2 0x55A JUMPI PUSH1 0x0 DUP1 REVERT JUMPDEST DUP4 ADD PUSH1 0x1F DUP2 ADD DUP6 SGT PUSH2 0x56B JUMPI PUSH1 0x0 DUP1 REVERT JUMPDEST DUP1 CALLDATALOAD PUSH2 0x57E PUSH2 0x579 DUP3 PUSH2 0x4F8 JUMP JUMPDEST PUSH2 0x4C7 JUMP JUMPDEST DUP2 DUP2 MSTORE DUP7 PUSH1 0x20 DUP4 DUP6 ADD ADD GT ISZERO PUSH2 0x593 JUMPI PUSH1 0x0 DUP1 REVERT JUMPDEST DUP2 PUSH1 0x20 DUP5 ADD PUSH1 0x20 DUP4 ADD CALLDATACOPY PUSH1 0x0 PUSH1 0x20 DUP4 DUP4 ADD ADD MSTORE DUP1 SWAP4 POP POP POP POP SWAP3 POP SWAP3 SWAP1 POP JUMP JUMPDEST PUSH1 0x0 PUSH1 0x20 DUP1 DUP4 DUP6 SUB SLT ISZERO PUSH2 0x5C6 JUMPI PUSH1 0x0 DUP1 REVERT JUMPDEST DUP3 MLOAD PUSH8 0xFFFFFFFFFFFFFFFF DUP1 DUP3 GT ISZERO PUSH2 0x5DE JUMPI PUSH1 0x0 DUP1 REVERT JUMPDEST SWAP1 DUP5 ADD SWAP1 PUSH1 0x40 DUP3 DUP8 SUB SLT ISZERO PUSH2 0x5F2 JUMPI PUSH1 0x0 DUP1 REVERT JUMPDEST PUSH2 0x5FA PUSH2 0x49E JUMP JUMPDEST DUP3 MLOAD DUP3 DUP2 GT ISZERO PUSH2 0x609 JUMPI PUSH1 0x0 DUP1 REVERT JUMPDEST DUP4 ADD SWAP2 POP PUSH1 0x1F DUP3 ADD DUP8 SGT PUSH2 0x61C JUMPI PUSH1 0x0 DUP1 REVERT JUMPDEST DUP2 MLOAD PUSH2 0x62A PUSH2 0x579 DUP3 PUSH2 0x4F8 JUMP JUMPDEST DUP2 DUP2 MSTORE DUP9 DUP7 DUP4 DUP7 ADD ADD GT ISZERO PUSH2 0x63E JUMPI PUSH1 0x0 DUP1 REVERT JUMPDEST PUSH2 0x64D DUP3 DUP8 DUP4 ADD DUP9 DUP8 ADD PUSH2 0x3AC JUMP JUMPDEST DUP3 MSTORE POP SWAP2 DUP4 ADD MLOAD SWAP2 PUSH2 0x65E DUP4 PUSH2 0x439 JUMP JUMPDEST SWAP3 DUP4 ADD SWAP2 SWAP1 SWAP2 MSTORE POP SWAP4 SWAP3 POP POP POP JUMP JUMPDEST PUSH1 0x1 DUP2 DUP2 SHR SWAP1 DUP3 AND DUP1 PUSH2 0x681 JUMPI PUSH1 0x7F DUP3 AND SWAP2 POP JUMPDEST PUSH1 0x20 DUP3 LT DUP2 SUB PUSH2 0x6A1 JUMPI PUSH4 0x4E487B71 PUSH1 0xE0 SHL PUSH1 0x0 MSTORE PUSH1 0x22 PUSH1 0x4 MSTORE PUSH1 0x24 PUSH1 0x0 REVERT JUMPDEST POP SWAP2 SWAP1 POP JUMP JUMPDEST PUSH1 0x1F DUP3 GT ISZERO PUSH2 0x300 JUMPI PUSH1 0x0 DUP2 PUSH1 0x0 MSTORE PUSH1 0x20 PUSH1 0x0 KECCAK256 PUSH1 0x1F DUP6 ADD PUSH1 0x5 SHR DUP2 ADD PUSH1 0x20 DUP7 LT ISZERO PUSH2 0x6D0 JUMPI POP DUP1 JUMPDEST PUSH1 0x1F DUP6 ADD PUSH1 0x5 SHR DUP3 ADD SWAP2 POP JUMPDEST DUP2 DUP2 LT ISZERO PUSH2 0x6EF JUMPI DUP3 DUP2 SSTORE PUSH1 0x1 ADD PUSH2 0x6DC JUMP JUMPDEST POP POP POP POP POP POP JUMP JUMPDEST DUP2 MLOAD PUSH8 0xFFFFFFFFFFFFFFFF DUP2 GT ISZERO PUSH2 0x711 JUMPI PUSH2 0x711 PUSH2 0x488 JUMP JUMPDEST PUSH2 0x725 DUP2 PUSH2 0x71F DUP5 SLOAD PUSH2 0x66D JUMP JUMPDEST DUP5 PUSH2 0x6A7 JUMP JUMPDEST PUSH1 0x20 DUP1 PUSH1 0x1F DUP4 GT PUSH1 0x1 DUP2 EQ PUSH2 0x75A JUMPI PUSH1 0x0 DUP5 ISZERO PUSH2 0x742 JUMPI POP DUP6 DUP4 ADD MLOAD JUMPDEST PUSH1 0x0 NOT PUSH1 0x3 DUP7 SWAP1 SHL SHR NOT AND PUSH1 0x1 DUP6 SWAP1 SHL OR DUP6 SSTORE PUSH2 0x6EF JUMP JUMPDEST PUSH1 0x0 DUP6 DUP2 MSTORE PUSH1 0x20 DUP2 KECCAK256 PUSH1 0x1F NOT DUP7 AND SWAP2 JUMPDEST DUP3 DUP2 LT ISZERO PUSH2 0x789 JUMPI DUP9 DUP7 ADD MLOAD DUP3 SSTORE SWAP5 DUP5 ADD SWAP5 PUSH1 0x1 SWAP1 SWAP2 ADD SWAP1 DUP5 ADD PUSH2 0x76A JUMP JUMPDEST POP DUP6 DUP3 LT ISZERO PUSH2 0x7A7 JUMPI DUP8 DUP6 ADD MLOAD PUSH1 0x0 NOT PUSH1 0x3 DUP9 SWAP1 SHL PUSH1 0xF8 AND SHR NOT AND DUP2 SSTORE JUMPDEST POP POP POP POP POP PUSH1 0x1 SWAP1 DUP2 SHL ADD SWAP1 SSTORE POP JUMP JUMPDEST PUSH1 0x0 PUSH1 0x20 DUP3 DUP5 SUB SLT ISZERO PUSH2 0x7C9 JUMPI PUSH1 0x0 DUP1 REVERT JUMPDEST POP MLOAD SWAP2 SWAP1 POP JUMP JUMPDEST DUP1 DUP3 ADD DUP1 DUP3 GT ISZERO PUSH2 0x7F1 JUMPI PUSH4 0x4E487B71 PUSH1 0xE0 SHL PUSH1 0x0 MSTORE PUSH1 0x11 PUSH1 0x4 MSTORE PUSH1 0x24 PUSH1 0x0 REVERT JUMPDEST SWAP3 SWAP2 POP POP JUMP INVALID LOG2 PUSH5 0x6970667358 0x22 SLT KECCAK256 CHAINID 0xB3 0xA7 EQ 0xD9 0xE6 0xCE 0xDA 0xA8 0xC5 SHL 0xD8 0xD2 PUSH24 0xA46B1DBC42A77080E6200BF06E8EF704B85664736F6C6343 STOP ADDMOD XOR STOP CALLER "},"methodIdentifiers":{"addHolderRecord(address,string)":"9c54a6b9","deployedBy()":"1f21cc91","getAssignedSigner()":"05227665","getHolderRecord(address)":"161aea21","getHolderTokens(address)":"e547e693","getTokenDrop(address)":"debfc2f2","initialize()":"8129fc1c"}},"storageLayout":{"storage":[{"astId":23,"contract":"contracts/ExamLedger.sol:ExamLedger","label":"tokenDispenser","offset":0,"slot":"0","type":"t_address"},{"astId":25,"contract":"contracts/ExamLedger.sol:ExamLedger","label":"keyGenerator","offset":0,"slot":"1","type":"t_address"},{"astId":29,"contract":"contracts/ExamLedger.sol:ExamLedger","label":"holderTokens","offset":0,"slot":"2","type":"t_mapping(t_address,t_uint256)"},{"astId":33,"contract":"contracts/ExamLedger.sol:ExamLedger","label":"holderRecords","offset":0,"slot":"3","type":"t_mapping(t_address,t_string_storage)"}],"types":{"t_address":{"encoding":"inplace","label":"address","numberOfBytes":"20"},"t_mapping(t_address,t_string_storage)":{"encoding":"mapping","key":"t_address","label":"mapping(address => string)","numberOfBytes":"32","value":"t_string_storage"},"t_mapping(t_address,t_uint256)":{"encoding":"mapping","key":"t_address","label":"mapping(address => uint256)","numberOfBytes":"32","value":"t_uint256"},"t_string_storage":{"encoding":"bytes","label":"string","numberOfBytes":"32"},"t_uint256":{"encoding":"inplace","label":"uint256","numberOfBytes":"32"}}}}}}