{
  "_format": "hh-sol-artifact-1",
  "contractName": "ElectiveCoursesIBUV2",
  "sourceName": "contracts/ElectiveCoursesIBUV2.sol",
  "abi": [
    {
      "inputs": [
        {
          "internalType": "address",
          "name": "target",
          "type": "address"
        }
      ],
      "name": "AddressEmptyCode",
      "type": "error"
    },
    {
      "inputs": [
        {
          "internalType": "address",
          "name": "implementation",
          "type": "address"
        }
      ],
      "name": "ERC1967InvalidImplementation",
      "type": "error"
    },
    {
      "inputs": [],
      "name": "ERC1967NonPayable",
      "type": "error"
    },
    {
      "inputs": [],
      "name": "FailedInnerCall",
      "type": "error"
    },
    {
      "inputs": [],
      "name": "InvalidInitialization",
      "type": "error"
    },
    {
      "inputs": [],
      "name": "NotInitializing",
      "type": "error"
    },
    {
      "inputs": [
        {
          "internalType": "address",
          "name": "owner",
          "type": "address"
        }
      ],
      "name": "OwnableInvalidOwner",
      "type": "error"
    },
    {
      "inputs": [
        {
          "internalType": "address",
          "name": "account",
          "type": "address"
        }
      ],
      "name": "OwnableUnauthorizedAccount",
      "type": "error"
    },
    {
      "inputs": [],
      "name": "UUPSUnauthorizedCallContext",
      "type": "error"
    },
    {
      "inputs": [
        {
          "internalType": "bytes32",
          "name": "slot",
          "type": "bytes32"
        }
      ],
      "name": "UUPSUnsupportedProxiableUUID",
      "type": "error"
    },
    {
      "anonymous": false,
      "inputs": [
        {
          "indexed": false,
          "internalType": "uint64",
          "name": "version",
          "type": "uint64"
        }
      ],
      "name": "Initialized",
      "type": "event"
    },
    {
      "anonymous": false,
      "inputs": [
        {
          "indexed": true,
          "internalType": "address",
          "name": "previousOwner",
          "type": "address"
        },
        {
          "indexed": true,
          "internalType": "address",
          "name": "newOwner",
          "type": "address"
        }
      ],
      "name": "OwnershipTransferred",
      "type": "event"
    },
    {
      "anonymous": false,
      "inputs": [
        {
          "indexed": true,
          "internalType": "address",
          "name": "implementation",
          "type": "address"
        }
      ],
      "name": "Upgraded",
      "type": "event"
    },
    {
      "inputs": [],
      "name": "UPGRADE_INTERFACE_VERSION",
      "outputs": [
        {
          "internalType": "string",
          "name": "",
          "type": "string"
        }
      ],
      "stateMutability": "view",
      "type": "function"
    },
    {
      "inputs": [],
      "name": "deployedBy",
      "outputs": [
        {
          "internalType": "string",
          "name": "",
          "type": "string"
        }
      ],
      "stateMutability": "pure",
      "type": "function"
    },
    {
      "inputs": [
        {
          "internalType": "uint256",
          "name": "id",
          "type": "uint256"
        }
      ],
      "name": "getCourse",
      "outputs": [
        {
          "internalType": "string",
          "name": "",
          "type": "string"
        }
      ],
      "stateMutability": "view",
      "type": "function"
    },
    {
      "inputs": [
        {
          "internalType": "uint256",
          "name": "id",
          "type": "uint256"
        }
      ],
      "name": "getCourseWithCapacity",
      "outputs": [
        {
          "internalType": "string",
          "name": "",
          "type": "string"
        }
      ],
      "stateMutability": "view",
      "type": "function"
    },
    {
      "inputs": [
        {
          "internalType": "address",
          "name": "student",
          "type": "address"
        }
      ],
      "name": "getStudentCourses",
      "outputs": [
        {
          "internalType": "string[]",
          "name": "",
          "type": "string[]"
        }
      ],
      "stateMutability": "view",
      "type": "function"
    },
    {
      "inputs": [],
      "name": "initialize",
      "outputs": [],
      "stateMutability": "nonpayable",
      "type": "function"
    },
    {
      "inputs": [],
      "name": "owner",
      "outputs": [
        {
          "internalType": "address",
          "name": "",
          "type": "address"
        }
      ],
      "stateMutability": "view",
      "type": "function"
    },
    {
      "inputs": [],
      "name": "proxiableUUID",
      "outputs": [
        {
          "internalType": "bytes32",
          "name": "",
          "type": "bytes32"
        }
      ],
      "stateMutability": "view",
      "type": "function"
    },
    {
      "inputs": [
        {
          "internalType": "address",
          "name": "student",
          "type": "address"
        },
        {
          "internalType": "uint256[]",
          "name": "courseIds",
          "type": "uint256[]"
        }
      ],
      "name": "registerCourses",
      "outputs": [],
      "stateMutability": "nonpayable",
      "type": "function"
    },
    {
      "inputs": [],
      "name": "renounceOwnership",
      "outputs": [],
      "stateMutability": "nonpayable",
      "type": "function"
    },
    {
      "inputs": [
        {
          "internalType": "address",
          "name": "newOwner",
          "type": "address"
        }
      ],
      "name": "transferOwnership",
      "outputs": [],
      "stateMutability": "nonpayable",
      "type": "function"
    },
    {
      "inputs": [
        {
          "internalType": "address",
          "name": "student",
          "type": "address"
        },
        {
          "internalType": "uint256[]",
          "name": "courseIds",
          "type": "uint256[]"
        }
      ],
      "name": "unregisterCourses",
      "outputs": [],
      "stateMutability": "nonpayable",
      "type": "function"
    },
    {
      "inputs": [
        {
          "internalType": "address",
          "name": "newImplementation",
          "type": "address"
        },
        {
          "internalType": "bytes",
          "name": "data",
          "type": "bytes"
        }
      ],
      "name": "upgradeToAndCall",
      "outputs": [],
      "stateMutability": "payable",
      "type": "function"
    }
  ],
  "bytecode": "0x60a06040523060805234801561001457600080fd5b50608051611b2d61003e60003960008181610de501528181610e0e0152610f540152611b2d6000f3fe6080604052600436106100c25760003560e01c80636838841b1161007f5780638da5cb5b116100595780638da5cb5b146101fd578063ad3cb1cc14610244578063d40761e414610275578063f2fde38b146102a257600080fd5b80636838841b146101b3578063715018a6146101d35780638129fc1c146101e857600080fd5b80630b91e28d146100c7578063108b8a6a146100fd578063124e64621461011d5780631f21cc911461013f5780634f1ef2861461017d57806352d1902d14610190575b600080fd5b3480156100d357600080fd5b506100e76100e2366004611487565b6102c2565b6040516100f491906114f0565b60405180910390f35b34801561010957600080fd5b506100e7610118366004611487565b610371565b34801561012957600080fd5b5061013d61013836600461151f565b6103f9565b005b34801561014b57600080fd5b506040805180820190915260158152744465706c6f7965642062792044696e6f204b72736f60581b60208201526100e7565b61013d61018b3660046115bb565b6105f9565b34801561019c57600080fd5b506101a5610618565b6040519081526020016100f4565b3480156101bf57600080fd5b5061013d6101ce36600461151f565b610635565b3480156101df57600080fd5b5061013d6108d2565b3480156101f457600080fd5b5061013d6108e6565b34801561020957600080fd5b507f9016d09d72d40fdae2fd8ceac6b6234c7706214fd39c1cd1e609a0528c199300546040516001600160a01b0390911681526020016100f4565b34801561025057600080fd5b506100e7604051806040016040528060058152602001640352e302e360dc1b81525081565b34801561028157600080fd5b5061029561029036600461167d565b610be0565b6040516100f49190611698565b3480156102ae57600080fd5b5061013d6102bd36600461167d565b610d09565b6060600282815481106102d7576102d76116fc565b9060005260206000200180546102ec90611712565b80601f016020809104026020016040519081016040528092919081815260200182805461031890611712565b80156103655780601f1061033a57610100808354040283529160200191610365565b820191906000526020600020905b81548152906001019060200180831161034857829003601f168201915b50505050509050919050565b606060028281548110610386576103866116fc565b906000526020600020016103ab60008085815260200190815260200160002054610d47565b6103d1600385815481106103c1576103c16116fc565b9060005260206000200154610d47565b6040516020016103e393929190611768565b6040516020818303038152906040529050919050565b60005b818110156105f3576000838383818110610418576104186116fc565b90506020020135101580156104465750600683838381811061043c5761043c6116fc565b9050602002013511155b6104a85760405162461bcd60e51b815260206004820152602860248201527f596f75206172652073656c656374696e672061206e6f6e2d6578697374696e6760448201526720636f757273652160c01b60648201526084015b60405180910390fd5b600160008484848181106104be576104be6116fc565b6020908102929092013583525081810192909252604090810160009081206001600160a01b038816825290925290205460ff16151560011461051784848481811061050b5761050b6116fc565b905060200201356102c2565b6040516020016105279190611823565b604051602081830303815290604052906105545760405162461bcd60e51b815260040161049f91906114f0565b5060008084848481811061056a5761056a6116fc565b905060200201358152602001908152602001600020600081548092919061059090611889565b91905055506000600160008585858181106105ad576105ad6116fc565b6020908102929092013583525081810192909252604090810160009081206001600160a01b03891682529092529020805460ff19169115159190911790556001016103fc565b50505050565b610601610dda565b61060a82610e7f565b6106148282610e87565b5050565b6000610622610f49565b50600080516020611aaa83398151915290565b60005b818110156105f3576000838383818110610654576106546116fc565b905060200201351015801561068257506007838383818110610678576106786116fc565b9050602002013511155b6106de5760405162461bcd60e51b815260206004820152602760248201527f596f75206172652063686f6f73696e672061206e6f6e2d6578697374696e6720604482015266636f757273652160c81b606482015260840161049f565b60038383838181106106f2576106f26116fc565b9050602002013581548110610709576107096116fc565b9060005260206000200154600080858585818110610729576107296116fc565b905060200201358152602001908152602001600020541061075584848481811061050b5761050b6116fc565b60405160200161076591906118a0565b604051602081830303815290604052906107925760405162461bcd60e51b815260040161049f91906114f0565b50600160008484848181106107a9576107a96116fc565b6020908102929092013583525081810192909252604090810160009081206001600160a01b038816825290925290205460ff161515600114156107f784848481811061050b5761050b6116fc565b60405160200161080791906118e4565b604051602081830303815290604052906108345760405162461bcd60e51b815260040161049f91906114f0565b5060008084848481811061084a5761084a6116fc565b905060200201358152602001908152602001600020600081548092919061087090611929565b9190505550600180600085858581811061088c5761088c6116fc565b6020908102929092013583525081810192909252604090810160009081206001600160a01b03891682529092529020805460ff1916911515919091179055600101610638565b6108da610f92565b6108e46000610fed565b565b7ff0c57e16840df040f15088dc2f81fe391c3923bec73e23a9662efc9c229c6a008054600160401b810460ff16159067ffffffffffffffff1660008115801561092c5750825b905060008267ffffffffffffffff1660011480156109495750303b155b905081158015610957575080155b156109755760405163f92ee8a960e01b815260040160405180910390fd5b845467ffffffffffffffff19166001178555831561099f57845460ff60401b1916600160401b1785555b6109a83361105e565b6109b061106f565b60405180610100016040528060405180604001604052806016815260200175416476616e636564205765623320436f6e636570747360501b815250815260200160405180604001604052806016815260200175496e74726f64756374696f6e20746f204465764f707360501b8152508152602001604051806060016040528060228152602001611a8860229139815260200160405180604001604052806014815260200173536f66747761726520456e67696e656572696e6760601b81525081526020016040518060400160405280602081526020017f496e74726f64756374696f6e20746f204d616368696e65204c6561726e696e6781525081526020016040518060400160405280600b81526020016a44617461204d696e696e6760a81b81525081526020016040518060600160405280602e8152602001611aca602e913981526020016040518060400160405280601b81526020017f416476616e636564204d6f62696c6520456e67696e656572696e6700000000008152508152506002906008610b3f929190611379565b506040805161010081018252601e80825260208201819052605092820183905260608201929092526080810182905260a0810191909152601460c0820181905260e0820152610b929060039060086113cf565b508315610bd957845460ff60401b19168555604051600181527fc7f505b2f371ae2175ee4913f4499e1f2633a7b5936321eed1cdaeb6115181d29060200160405180910390a15b5050505050565b60606000805b6007811015610c345760008181526001602081815260408084206001600160a01b03891685529091529091205460ff1615159003610c2c5781610c2881611929565b9250505b600101610be6565b5060008167ffffffffffffffff811115610c5057610c506115a5565b604051908082528060200260200182016040528015610c8357816020015b6060815260200190600190039081610c6e5790505b5090506000805b6007811015610cff5760008181526001602081815260408084206001600160a01b038b1685529091529091205460ff1615159003610cf757610ccb816102c2565b838381518110610cdd57610cdd6116fc565b60200260200101819052508180610cf390611929565b9250505b600101610c8a565b5090949350505050565b610d11610f92565b6001600160a01b038116610d3b57604051631e4fbdf760e01b81526000600482015260240161049f565b610d4481610fed565b50565b60606000610d5483611077565b600101905060008167ffffffffffffffff811115610d7457610d746115a5565b6040519080825280601f01601f191660200182016040528015610d9e576020820181803683370190505b5090508181016020015b600019016f181899199a1a9b1b9c1cb0b131b232b360811b600a86061a8153600a8504945084610da857509392505050565b306001600160a01b037f0000000000000000000000000000000000000000000000000000000000000000161480610e6157507f00000000000000000000000000000000000000000000000000000000000000006001600160a01b0316610e55600080516020611aaa833981519152546001600160a01b031690565b6001600160a01b031614155b156108e45760405163703e46dd60e11b815260040160405180910390fd5b610d44610f92565b816001600160a01b03166352d1902d6040518163ffffffff1660e01b8152600401602060405180830381865afa925050508015610ee1575060408051601f3d908101601f19168201909252610ede91810190611942565b60015b610f0957604051634c9c8ce360e01b81526001600160a01b038316600482015260240161049f565b600080516020611aaa8339815191528114610f3a57604051632a87526960e21b81526004810182905260240161049f565b610f448383611150565b505050565b306001600160a01b037f000000000000000000000000000000000000000000000000000000000000000016146108e45760405163703e46dd60e11b815260040160405180910390fd5b33610fc47f9016d09d72d40fdae2fd8ceac6b6234c7706214fd39c1cd1e609a0528c199300546001600160a01b031690565b6001600160a01b0316146108e45760405163118cdaa760e01b815233600482015260240161049f565b7f9016d09d72d40fdae2fd8ceac6b6234c7706214fd39c1cd1e609a0528c19930080546001600160a01b031981166001600160a01b03848116918217845560405192169182907f8be0079c531659141344cd1fd0a4f28419497f9722a3daafe3b4186f6b6457e090600090a3505050565b6110666111a6565b610d44816111ef565b6108e46111a6565b60008072184f03e93ff9f4daa797ed6e38ed64bf6a1f0160401b83106110b65772184f03e93ff9f4daa797ed6e38ed64bf6a1f0160401b830492506040015b6d04ee2d6d415b85acef810000000083106110e2576d04ee2d6d415b85acef8100000000830492506020015b662386f26fc10000831061110057662386f26fc10000830492506010015b6305f5e1008310611118576305f5e100830492506008015b612710831061112c57612710830492506004015b6064831061113e576064830492506002015b600a831061114a576001015b92915050565b611159826111f7565b6040516001600160a01b038316907fbc7cd75a20ee27fd9adebab32041f755214dbc6bffa90cc0225b39da2e5c2d3b90600090a280511561119e57610f44828261125c565b6106146112d2565b7ff0c57e16840df040f15088dc2f81fe391c3923bec73e23a9662efc9c229c6a0054600160401b900460ff166108e457604051631afcd79f60e31b815260040160405180910390fd5b610d116111a6565b806001600160a01b03163b60000361122d57604051634c9c8ce360e01b81526001600160a01b038216600482015260240161049f565b600080516020611aaa83398151915280546001600160a01b0319166001600160a01b0392909216919091179055565b6060600080846001600160a01b031684604051611279919061195b565b600060405180830381855af49150503d80600081146112b4576040519150601f19603f3d011682016040523d82523d6000602084013e6112b9565b606091505b50915091506112c98583836112f1565b95945050505050565b34156108e45760405163b398979f60e01b815260040160405180910390fd5b6060826113065761130182611350565b611349565b815115801561131d57506001600160a01b0384163b155b1561134657604051639996b31560e01b81526001600160a01b038516600482015260240161049f565b50805b9392505050565b8051156113605780518082602001fd5b604051630a12f52160e11b815260040160405180910390fd5b8280548282559060005260206000209081019282156113bf579160200282015b828111156113bf57825182906113af90826119c7565b5091602001919060010190611399565b506113cb92915061141b565b5090565b82805482825590600052602060002090810192821561140f579160200282015b8281111561140f578251829060ff169055916020019190600101906113ef565b506113cb929150611438565b808211156113cb57600061142f828261144d565b5060010161141b565b5b808211156113cb5760008155600101611439565b50805461145990611712565b6000825580601f10611469575050565b601f016020900490600052602060002090810190610d449190611438565b60006020828403121561149957600080fd5b5035919050565b60005b838110156114bb5781810151838201526020016114a3565b50506000910152565b600081518084526114dc8160208601602086016114a0565b601f01601f19169290920160200192915050565b60208152600061134960208301846114c4565b80356001600160a01b038116811461151a57600080fd5b919050565b60008060006040848603121561153457600080fd5b61153d84611503565b9250602084013567ffffffffffffffff8082111561155a57600080fd5b818601915086601f83011261156e57600080fd5b81358181111561157d57600080fd5b8760208260051b850101111561159257600080fd5b6020830194508093505050509250925092565b634e487b7160e01b600052604160045260246000fd5b600080604083850312156115ce57600080fd5b6115d783611503565b9150602083013567ffffffffffffffff808211156115f457600080fd5b818501915085601f83011261160857600080fd5b81358181111561161a5761161a6115a5565b604051601f8201601f19908116603f01168101908382118183101715611642576116426115a5565b8160405282815288602084870101111561165b57600080fd5b8260208601602083013760006020848301015280955050505050509250929050565b60006020828403121561168f57600080fd5b61134982611503565b600060208083016020845280855180835260408601915060408160051b87010192506020870160005b828110156116ef57603f198886030184526116dd8583516114c4565b945092850192908501906001016116c1565b5092979650505050505050565b634e487b7160e01b600052603260045260246000fd5b600181811c9082168061172657607f821691505b60208210810361174657634e487b7160e01b600052602260045260246000fd5b50919050565b6000815161175e8185602086016114a0565b9290920192915050565b600080855461177681611712565b6001828116801561178e57600181146117a3576117d2565b60ff19841687528215158302870194506117d2565b8960005260208060002060005b858110156117c95781548a8201529084019082016117b0565b50505082870194505b5050505061040560f31b815284516117f18160028401602089016114a0565b0161180260028201602f60f81b9052565b61180f600382018561174c565b602960f81b81526001019695505050505050565b7f596f7520617265206e6f7420656e726f6c6c656420746f20000000000000000081526000825161185b8160188501602087016114a0565b602160f81b6018939091019283015250601901919050565b634e487b7160e01b600052601160045260246000fd5b60008161189857611898611873565b506000190190565b66021b7bab939b2960cd1b8152600082516118c28160078501602087016114a0565b6a2066696c6c65642075702160a81b6007939091019283015250601201919050565b7102cb7ba9030b63932b0b23c9031b437b9b2960751b8152600082516119118160128501602087016114a0565b602160f81b6012939091019283015250601301919050565b60006001820161193b5761193b611873565b5060010190565b60006020828403121561195457600080fd5b5051919050565b6000825161196d8184602087016114a0565b9190910192915050565b601f821115610f44576000816000526020600020601f850160051c810160208610156119a05750805b601f850160051c820191505b818110156119bf578281556001016119ac565b505050505050565b815167ffffffffffffffff8111156119e1576119e16115a5565b6119f5816119ef8454611712565b84611977565b602080601f831160018114611a2a5760008415611a125750858301515b600019600386901b1c1916600185901b1785556119bf565b600085815260208120601f198616915b82811015611a5957888601518255948401946001909101908401611a3a565b5085821015611a775787850151600019600388901b60f8161c191681555b5050505050600190811b0190555056fe53656375726520536f6674776172652053797374656d20446576656c6f706d656e74360894a13ba1a3210667c828492db98dca3e2076cc3735a920a3ca505d382bbc496e74726f64756374696f6e20746f204d6f62696c6520616e6420576972656c657373204e6574776f726b696e67a26469706673582212207e701f987bc503abc9f933455d755fc98d3acc8dad69cb6fc87787d514188d7064736f6c63430008180033",
  "linkReferences": {},
  "deployedLinkReferences": {}
}