{
  "_format": "hh-sol-artifact-1",
  "contractName": "Relay",
  "sourceName": "contracts/Relay.sol",
  "abi": [
    {
      "inputs": [],
      "name": "ECDSAInvalidSignature",
      "type": "error"
    },
    {
      "inputs": [
        {
          "internalType": "uint256",
          "name": "length",
          "type": "uint256"
        }
      ],
      "name": "ECDSAInvalidSignatureLength",
      "type": "error"
    },
    {
      "inputs": [
        {
          "internalType": "bytes32",
          "name": "s",
          "type": "bytes32"
        }
      ],
      "name": "ECDSAInvalidSignatureS",
      "type": "error"
    },
    {
      "inputs": [
        {
          "internalType": "address",
          "name": "owner",
          "type": "address"
        }
      ],
      "name": "OwnableInvalidOwner",
      "type": "error"
    },
    {
      "inputs": [
        {
          "internalType": "address",
          "name": "account",
          "type": "address"
        }
      ],
      "name": "OwnableUnauthorizedAccount",
      "type": "error"
    },
    {
      "anonymous": false,
      "inputs": [
        {
          "indexed": true,
          "internalType": "address",
          "name": "previousOwner",
          "type": "address"
        },
        {
          "indexed": true,
          "internalType": "address",
          "name": "newOwner",
          "type": "address"
        }
      ],
      "name": "OwnershipTransferred",
      "type": "event"
    },
    {
      "inputs": [
        {
          "internalType": "address",
          "name": "_signer",
          "type": "address"
        }
      ],
      "name": "addToWhitelist",
      "outputs": [],
      "stateMutability": "nonpayable",
      "type": "function"
    },
    {
      "inputs": [
        {
          "internalType": "address",
          "name": "_to",
          "type": "address"
        },
        {
          "internalType": "bytes",
          "name": "_data",
          "type": "bytes"
        },
        {
          "internalType": "uint256",
          "name": "_nonce",
          "type": "uint256"
        },
        {
          "internalType": "bytes",
          "name": "_signature",
          "type": "bytes"
        }
      ],
      "name": "forward",
      "outputs": [
        {
          "internalType": "bytes",
          "name": "_result",
          "type": "bytes"
        }
      ],
      "stateMutability": "nonpayable",
      "type": "function"
    },
    {
      "inputs": [
        {
          "internalType": "address",
          "name": "_signer",
          "type": "address"
        }
      ],
      "name": "isInWhitelist",
      "outputs": [
        {
          "internalType": "bool",
          "name": "",
          "type": "bool"
        }
      ],
      "stateMutability": "view",
      "type": "function"
    },
    {
      "inputs": [],
      "name": "owner",
      "outputs": [
        {
          "internalType": "address",
          "name": "",
          "type": "address"
        }
      ],
      "stateMutability": "view",
      "type": "function"
    },
    {
      "inputs": [],
      "name": "renounceOwnership",
      "outputs": [],
      "stateMutability": "nonpayable",
      "type": "function"
    },
    {
      "inputs": [
        {
          "internalType": "address",
          "name": "newOwner",
          "type": "address"
        }
      ],
      "name": "transferOwnership",
      "outputs": [],
      "stateMutability": "nonpayable",
      "type": "function"
    }
  ],
  "bytecode": "0x608060405234801561001057600080fd5b50338061003757604051631e4fbdf760e01b81526000600482015260240160405180910390fd5b61004081610046565b50610096565b600080546001600160a01b038381166001600160a01b0319831681178455604051919092169283917f8be0079c531659141344cd1fd0a4f28419497f9722a3daafe3b4186f6b6457e09190a35050565b6108f8806100a56000396000f3fe608060405234801561001057600080fd5b50600436106100615760003560e01c8062d4482c1461006657806309fd82121461008f578063715018a6146100b25780638da5cb5b146100bc578063e43252d7146100d7578063f2fde38b146100ea575b600080fd5b610079610074366004610708565b6100fd565b60405161008691906107ba565b60405180910390f35b6100a261009d366004610809565b6101b6565b6040519015158152602001610086565b6100ba6101e3565b005b6000546040516001600160a01b039091168152602001610086565b6100ba6100e5366004610809565b6101f7565b6100ba6100f8366004610809565b610226565b606060008061010f8888888888610269565b6001600160a01b03811660009081526002602052604081208054929350906101368361082b565b9190505550876001600160a01b03168787604051610155929190610852565b6000604051808303816000865af19150503d8060008114610192576040519150601f19603f3d011682016040523d82523d6000602084013e610197565b606091505b5093509150816101ab573d6000803e3d6000fd5b505095945050505050565b60006101c06103ce565b506001600160a01b03811660009081526001602052604090205460ff165b919050565b6101eb6103ce565b6101f560006103fb565b565b6101ff6103ce565b6001600160a01b03166000908152600160208190526040909120805460ff19169091179055565b61022e6103ce565b6001600160a01b03811661025d57604051631e4fbdf760e01b8152600060048201526024015b60405180910390fd5b610266816103fb565b50565b60006001600160a01b0386166102c15760405162461bcd60e51b815260206004820152601760248201527f496e76616c6964207461726765742061646472657373210000000000000000006044820152606401610254565b6000868686866040516020016102da9493929190610862565b604051602081830303815290604052905060006103358461032f84805190602001207f19457468657265756d205369676e6564204d6573736167653a0a3332000000006000908152601c91909152603c902090565b9061044b565b6001600160a01b03811660009081526001602052604090205490915060ff16801561037757506001600160a01b03811660009081526002602052604090205485145b6103c35760405162461bcd60e51b815260206004820152601c60248201527f5369676e61747572652076616c69646174696f6e206661696c656421000000006044820152606401610254565b979650505050505050565b6000546001600160a01b031633146101f55760405163118cdaa760e01b8152336004820152602401610254565b600080546001600160a01b038381166001600160a01b0319831681178455604051919092169283917f8be0079c531659141344cd1fd0a4f28419497f9722a3daafe3b4186f6b6457e09190a35050565b60008060008061045b8686610475565b92509250925061046b82826104c2565b5090949350505050565b600080600083516041036104af5760208401516040850151606086015160001a6104a18882858561057f565b9550955095505050506104bb565b50508151600091506002905b9250925092565b60008260038111156104d6576104d66108ac565b036104df575050565b60018260038111156104f3576104f36108ac565b036105115760405163f645eedf60e01b815260040160405180910390fd5b6002826003811115610525576105256108ac565b036105465760405163fce698f760e01b815260048101829052602401610254565b600382600381111561055a5761055a6108ac565b0361057b576040516335e2f38360e21b815260048101829052602401610254565b5050565b600080807f7fffffffffffffffffffffffffffffff5d576e7357a4501ddfe92f46681b20a08411156105ba5750600091506003905082610644565b604080516000808252602082018084528a905260ff891692820192909252606081018790526080810186905260019060a0016020604051602081039080840390855afa15801561060e573d6000803e3d6000fd5b5050604051601f1901519150506001600160a01b03811661063a57506000925060019150829050610644565b9250600091508190505b9450945094915050565b80356001600160a01b03811681146101de57600080fd5b634e487b7160e01b600052604160045260246000fd5b600082601f83011261068c57600080fd5b813567ffffffffffffffff808211156106a7576106a7610665565b604051601f8301601f19908116603f011681019082821181831017156106cf576106cf610665565b816040528381528660208588010111156106e857600080fd5b836020870160208301376000602085830101528094505050505092915050565b60008060008060006080868803121561072057600080fd5b6107298661064e565b9450602086013567ffffffffffffffff8082111561074657600080fd5b818801915088601f83011261075a57600080fd5b81358181111561076957600080fd5b89602082850101111561077b57600080fd5b602083019650809550506040880135935060608801359150808211156107a057600080fd5b506107ad8882890161067b565b9150509295509295909350565b60006020808352835180602085015260005b818110156107e8578581018301518582016040015282016107cc565b506000604082860101526040601f19601f8301168501019250505092915050565b60006020828403121561081b57600080fd5b6108248261064e565b9392505050565b60006001820161084b57634e487b7160e01b600052601160045260246000fd5b5060010190565b8183823760009101908152919050565b6001600160a01b038516815260606020820181905281018390528284608083013760006080848301015260006080601f19601f860116830101905082604083015295945050505050565b634e487b7160e01b600052602160045260246000fdfea26469706673582212201d734284f01cbe2531015fdbc478222b4f7fde0652d6faf700afa412360246f664736f6c63430008180033",
  "linkReferences": {},
  "deployedLinkReferences": {}
}