{
  "_format": "hh-sol-artifact-1",
  "contractName": "ExamLedgerV2",
  "sourceName": "contracts/ExamLedgerV2.sol",
  "abi": [
    {
      "inputs": [
        {
          "internalType": "address",
          "name": "_holder",
          "type": "address"
        },
        {
          "internalType": "string",
          "name": "_ipfsCid",
          "type": "string"
        }
      ],
      "name": "addHolderRecord",
      "outputs": [],
      "stateMutability": "nonpayable",
      "type": "function"
    },
    {
      "inputs": [],
      "name": "deployedBy",
      "outputs": [
        {
          "internalType": "string",
          "name": "",
          "type": "string"
        }
      ],
      "stateMutability": "pure",
      "type": "function"
    },
    {
      "inputs": [],
      "name": "getAssignedSigner",
      "outputs": [
        {
          "components": [
            {
              "internalType": "string",
              "name": "_privateKey",
              "type": "string"
            },
            {
              "internalType": "address",
              "name": "_address",
              "type": "address"
            }
          ],
          "internalType": "struct IKeyGenerator.KeyPair",
          "name": "",
          "type": "tuple"
        }
      ],
      "stateMutability": "view",
      "type": "function"
    },
    {
      "inputs": [
        {
          "internalType": "address",
          "name": "_holder",
          "type": "address"
        }
      ],
      "name": "getHolderRecord",
      "outputs": [
        {
          "internalType": "string",
          "name": "",
          "type": "string"
        }
      ],
      "stateMutability": "view",
      "type": "function"
    },
    {
      "inputs": [
        {
          "internalType": "address",
          "name": "_holder",
          "type": "address"
        }
      ],
      "name": "getHolderTokens",
      "outputs": [
        {
          "internalType": "uint256",
          "name": "",
          "type": "uint256"
        }
      ],
      "stateMutability": "view",
      "type": "function"
    },
    {
      "inputs": [
        {
          "internalType": "address",
          "name": "_recipient",
          "type": "address"
        }
      ],
      "name": "getTokenDrop",
      "outputs": [],
      "stateMutability": "nonpayable",
      "type": "function"
    },
    {
      "inputs": [],
      "name": "initialize",
      "outputs": [],
      "stateMutability": "nonpayable",
      "type": "function"
    }
  ],
  "bytecode": "0x608060405234801561001057600080fd5b5061082d806100206000396000f3fe608060405234801561001057600080fd5b506004361061007d5760003560e01c80638129fc1c1161005b5780638129fc1c146100f15780639c54a6b914610140578063debfc2f214610153578063e547e6931461016657600080fd5b80630522766514610082578063161aea21146100a05780631f21cc91146100c0575b600080fd5b61008a61019d565b60405161009791906103fc565b60405180910390f35b6100b36100ae366004610451565b610232565b6040516100979190610475565b6040805180820190915260158152744465706c6f7965642062792044696e6f204b72736f60581b60208201526100b3565b61013e600080546001600160a01b0319908116732379bb13cce0ea1761a7a5cacdf0a786145764911790915560018054909116736a71b2571d8326f350753cce4c6c5c129cb6cb80179055565b005b61013e61014e366004610520565b6102de565b61013e610161366004610451565b610305565b61018f610174366004610451565b6001600160a01b031660009081526002602052604090205490565b604051908152602001610097565b604080518082019091526060815260006020820152600160009054906101000a90046001600160a01b03166001600160a01b031663d1283f336040518163ffffffff1660e01b8152600401600060405180830381865afa158015610205573d6000803e3d6000fd5b505050506040513d6000823e601f3d908101601f1916820160405261022d91908101906105b3565b905090565b6001600160a01b03811660009081526003602052604090208054606091906102599061066d565b80601f01602080910402602001604051908101604052809291908181526020018280546102859061066d565b80156102d25780601f106102a7576101008083540402835291602001916102d2565b820191906000526020600020905b8154815290600101906020018083116102b557829003601f168201915b50505050509050919050565b6001600160a01b038216600090815260036020526040902061030082826106f7565b505050565b60008054604051636f5fe17960e11b81526001600160a01b0384811660048301529091169063debfc2f2906024016020604051808303816000875af1158015610352573d6000803e3d6000fd5b505050506040513d601f19601f8201168201806040525081019061037691906107b7565b6001600160a01b0383166000908152600260205260408120805492935083929091906103a39084906107d0565b90915550505050565b60005b838110156103c75781810151838201526020016103af565b50506000910152565b600081518084526103e88160208601602086016103ac565b601f01601f19169290920160200192915050565b60208152600082516040602084015261041860608401826103d0565b602094909401516001600160a01b0316604093909301929092525090919050565b6001600160a01b038116811461044e57600080fd5b50565b60006020828403121561046357600080fd5b813561046e81610439565b9392505050565b60208152600061046e60208301846103d0565b634e487b7160e01b600052604160045260246000fd5b6040805190810167ffffffffffffffff811182821017156104c1576104c1610488565b60405290565b604051601f8201601f1916810167ffffffffffffffff811182821017156104f0576104f0610488565b604052919050565b600067ffffffffffffffff82111561051257610512610488565b50601f01601f191660200190565b6000806040838503121561053357600080fd5b823561053e81610439565b9150602083013567ffffffffffffffff81111561055a57600080fd5b8301601f8101851361056b57600080fd5b803561057e610579826104f8565b6104c7565b81815286602083850101111561059357600080fd5b816020840160208301376000602083830101528093505050509250929050565b600060208083850312156105c657600080fd5b825167ffffffffffffffff808211156105de57600080fd5b90840190604082870312156105f257600080fd5b6105fa61049e565b82518281111561060957600080fd5b83019150601f8201871361061c57600080fd5b815161062a610579826104f8565b818152888683860101111561063e57600080fd5b61064d828783018887016103ac565b825250918301519161065e83610439565b92830191909152509392505050565b600181811c9082168061068157607f821691505b6020821081036106a157634e487b7160e01b600052602260045260246000fd5b50919050565b601f821115610300576000816000526020600020601f850160051c810160208610156106d05750805b601f850160051c820191505b818110156106ef578281556001016106dc565b505050505050565b815167ffffffffffffffff81111561071157610711610488565b6107258161071f845461066d565b846106a7565b602080601f83116001811461075a57600084156107425750858301515b600019600386901b1c1916600185901b1785556106ef565b600085815260208120601f198616915b828110156107895788860151825594840194600190910190840161076a565b50858210156107a75787850151600019600388901b60f8161c191681555b5050505050600190811b01905550565b6000602082840312156107c957600080fd5b5051919050565b808201808211156107f157634e487b7160e01b600052601160045260246000fd5b9291505056fea2646970667358221220ca5586de977f6263341b09f091d28b9d1b2f61b513cfefa11bc70471657eee6764736f6c63430008180033",
  "linkReferences": {},
  "deployedLinkReferences": {}
}