{
  "_format": "hh-sol-artifact-1",
  "contractName": "ElectiveCoursesIBU",
  "sourceName": "contracts/ElectiveCoursesIBU.sol",
  "abi": [
    {
      "inputs": [
        {
          "internalType": "address",
          "name": "target",
          "type": "address"
        }
      ],
      "name": "AddressEmptyCode",
      "type": "error"
    },
    {
      "inputs": [
        {
          "internalType": "address",
          "name": "implementation",
          "type": "address"
        }
      ],
      "name": "ERC1967InvalidImplementation",
      "type": "error"
    },
    {
      "inputs": [],
      "name": "ERC1967NonPayable",
      "type": "error"
    },
    {
      "inputs": [],
      "name": "FailedInnerCall",
      "type": "error"
    },
    {
      "inputs": [],
      "name": "InvalidInitialization",
      "type": "error"
    },
    {
      "inputs": [],
      "name": "NotInitializing",
      "type": "error"
    },
    {
      "inputs": [
        {
          "internalType": "address",
          "name": "owner",
          "type": "address"
        }
      ],
      "name": "OwnableInvalidOwner",
      "type": "error"
    },
    {
      "inputs": [
        {
          "internalType": "address",
          "name": "account",
          "type": "address"
        }
      ],
      "name": "OwnableUnauthorizedAccount",
      "type": "error"
    },
    {
      "inputs": [],
      "name": "UUPSUnauthorizedCallContext",
      "type": "error"
    },
    {
      "inputs": [
        {
          "internalType": "bytes32",
          "name": "slot",
          "type": "bytes32"
        }
      ],
      "name": "UUPSUnsupportedProxiableUUID",
      "type": "error"
    },
    {
      "anonymous": false,
      "inputs": [
        {
          "indexed": false,
          "internalType": "uint64",
          "name": "version",
          "type": "uint64"
        }
      ],
      "name": "Initialized",
      "type": "event"
    },
    {
      "anonymous": false,
      "inputs": [
        {
          "indexed": true,
          "internalType": "address",
          "name": "previousOwner",
          "type": "address"
        },
        {
          "indexed": true,
          "internalType": "address",
          "name": "newOwner",
          "type": "address"
        }
      ],
      "name": "OwnershipTransferred",
      "type": "event"
    },
    {
      "anonymous": false,
      "inputs": [
        {
          "indexed": true,
          "internalType": "address",
          "name": "implementation",
          "type": "address"
        }
      ],
      "name": "Upgraded",
      "type": "event"
    },
    {
      "inputs": [],
      "name": "UPGRADE_INTERFACE_VERSION",
      "outputs": [
        {
          "internalType": "string",
          "name": "",
          "type": "string"
        }
      ],
      "stateMutability": "view",
      "type": "function"
    },
    {
      "inputs": [],
      "name": "deployedBy",
      "outputs": [
        {
          "internalType": "string",
          "name": "",
          "type": "string"
        }
      ],
      "stateMutability": "pure",
      "type": "function"
    },
    {
      "inputs": [
        {
          "internalType": "uint256",
          "name": "id",
          "type": "uint256"
        }
      ],
      "name": "getCourse",
      "outputs": [
        {
          "internalType": "string",
          "name": "",
          "type": "string"
        }
      ],
      "stateMutability": "view",
      "type": "function"
    },
    {
      "inputs": [
        {
          "internalType": "uint256",
          "name": "id",
          "type": "uint256"
        }
      ],
      "name": "getCourseWithCapacity",
      "outputs": [
        {
          "internalType": "string",
          "name": "",
          "type": "string"
        }
      ],
      "stateMutability": "view",
      "type": "function"
    },
    {
      "inputs": [
        {
          "internalType": "address",
          "name": "student",
          "type": "address"
        }
      ],
      "name": "getStudentCourses",
      "outputs": [
        {
          "internalType": "string[]",
          "name": "",
          "type": "string[]"
        }
      ],
      "stateMutability": "view",
      "type": "function"
    },
    {
      "inputs": [],
      "name": "initialize",
      "outputs": [],
      "stateMutability": "nonpayable",
      "type": "function"
    },
    {
      "inputs": [],
      "name": "owner",
      "outputs": [
        {
          "internalType": "address",
          "name": "",
          "type": "address"
        }
      ],
      "stateMutability": "view",
      "type": "function"
    },
    {
      "inputs": [],
      "name": "proxiableUUID",
      "outputs": [
        {
          "internalType": "bytes32",
          "name": "",
          "type": "bytes32"
        }
      ],
      "stateMutability": "view",
      "type": "function"
    },
    {
      "inputs": [
        {
          "internalType": "address",
          "name": "student",
          "type": "address"
        },
        {
          "internalType": "uint256[]",
          "name": "courseIds",
          "type": "uint256[]"
        }
      ],
      "name": "registerCourses",
      "outputs": [],
      "stateMutability": "nonpayable",
      "type": "function"
    },
    {
      "inputs": [],
      "name": "renounceOwnership",
      "outputs": [],
      "stateMutability": "nonpayable",
      "type": "function"
    },
    {
      "inputs": [
        {
          "internalType": "address",
          "name": "newOwner",
          "type": "address"
        }
      ],
      "name": "transferOwnership",
      "outputs": [],
      "stateMutability": "nonpayable",
      "type": "function"
    },
    {
      "inputs": [
        {
          "internalType": "address",
          "name": "newImplementation",
          "type": "address"
        },
        {
          "internalType": "bytes",
          "name": "data",
          "type": "bytes"
        }
      ],
      "name": "upgradeToAndCall",
      "outputs": [],
      "stateMutability": "payable",
      "type": "function"
    }
  ],
  "bytecode": "0x60a06040523060805234801561001457600080fd5b5060805161189a61003e60003960008181610bc101528181610bea0152610d30015261189a6000f3fe6080604052600436106100a75760003560e01c8063715018a611610064578063715018a6146101985780638129fc1c146101ad5780638da5cb5b146101c2578063ad3cb1cc14610209578063d40761e41461023a578063f2fde38b1461026757600080fd5b80630b91e28d146100ac578063108b8a6a146100e25780631f21cc91146101025780634f1ef2861461014057806352d1902d146101555780636838841b14610178575b600080fd5b3480156100b857600080fd5b506100cc6100c7366004611263565b610287565b6040516100d991906112cc565b60405180910390f35b3480156100ee57600080fd5b506100cc6100fd366004611263565b610336565b34801561010e57600080fd5b506040805180820190915260158152744465706c6f7965642062792044696e6f204b72736f60581b60208201526100cc565b61015361014e366004611311565b6103be565b005b34801561016157600080fd5b5061016a6103dd565b6040519081526020016100d9565b34801561018457600080fd5b506101536101933660046113d3565b6103fa565b3480156101a457600080fd5b506101536106ae565b3480156101b957600080fd5b506101536106c2565b3480156101ce57600080fd5b507f9016d09d72d40fdae2fd8ceac6b6234c7706214fd39c1cd1e609a0528c199300546040516001600160a01b0390911681526020016100d9565b34801561021557600080fd5b506100cc604051806040016040528060058152602001640352e302e360dc1b81525081565b34801561024657600080fd5b5061025a610255366004611459565b6109bc565b6040516100d99190611474565b34801561027357600080fd5b50610153610282366004611459565b610ae5565b60606002828154811061029c5761029c6114d8565b9060005260206000200180546102b1906114ee565b80601f01602080910402602001604051908101604052809291908181526020018280546102dd906114ee565b801561032a5780601f106102ff5761010080835404028352916020019161032a565b820191906000526020600020905b81548152906001019060200180831161030d57829003601f168201915b50505050509050919050565b60606002828154811061034b5761034b6114d8565b9060005260206000200161037060008085815260200190815260200160002054610b23565b61039660038581548110610386576103866114d8565b9060005260206000200154610b23565b6040516020016103a893929190611544565b6040516020818303038152906040529050919050565b6103c6610bb6565b6103cf82610c5b565b6103d98282610c63565b5050565b60006103e7610d25565b5060008051602061181783398151915290565b60005b818110156106a8576000838383818110610419576104196114d8565b90506020020135101580156104475750600783838381811061043d5761043d6114d8565b9050602002013511155b6104a85760405162461bcd60e51b815260206004820152602760248201527f596f75206172652063686f6f73696e672061206e6f6e2d6578697374696e6720604482015266636f757273652160c81b60648201526084015b60405180910390fd5b60038383838181106104bc576104bc6114d8565b90506020020135815481106104d3576104d36114d8565b90600052602060002001546000808585858181106104f3576104f36114d8565b905060200201358152602001908152602001600020541061052b84848481811061051f5761051f6114d8565b90506020020135610287565b60405160200161053b91906115ff565b604051602081830303815290604052906105685760405162461bcd60e51b815260040161049f91906112cc565b506001600084848481811061057f5761057f6114d8565b6020908102929092013583525081810192909252604090810160009081206001600160a01b038816825290925290205460ff161515600114156105cd84848481811061051f5761051f6114d8565b6040516020016105dd9190611643565b6040516020818303038152906040529061060a5760405162461bcd60e51b815260040161049f91906112cc565b50600080848484818110610620576106206114d8565b905060200201358152602001908152602001600020600081548092919061064690611688565b91905055506001806000858585818110610662576106626114d8565b6020908102929092013583525081810192909252604090810160009081206001600160a01b03891682529092529020805460ff19169115159190911790556001016103fd565b50505050565b6106b6610d6e565b6106c06000610dc9565b565b7ff0c57e16840df040f15088dc2f81fe391c3923bec73e23a9662efc9c229c6a008054600160401b810460ff16159067ffffffffffffffff166000811580156107085750825b905060008267ffffffffffffffff1660011480156107255750303b155b905081158015610733575080155b156107515760405163f92ee8a960e01b815260040160405180910390fd5b845467ffffffffffffffff19166001178555831561077b57845460ff60401b1916600160401b1785555b61078433610e3a565b61078c610e4b565b60405180610100016040528060405180604001604052806016815260200175416476616e636564205765623320436f6e636570747360501b815250815260200160405180604001604052806016815260200175496e74726f64756374696f6e20746f204465764f707360501b81525081526020016040518060600160405280602281526020016117f560229139815260200160405180604001604052806014815260200173536f66747761726520456e67696e656572696e6760601b81525081526020016040518060400160405280602081526020017f496e74726f64756374696f6e20746f204d616368696e65204c6561726e696e6781525081526020016040518060400160405280600b81526020016a44617461204d696e696e6760a81b81525081526020016040518060600160405280602e8152602001611837602e913981526020016040518060400160405280601b81526020017f416476616e636564204d6f62696c6520456e67696e656572696e670000000000815250815250600290600861091b929190611155565b506040805161010081018252601e80825260208201819052605092820183905260608201929092526080810182905260a0810191909152601460c0820181905260e082015261096e9060039060086111ab565b5083156109b557845460ff60401b19168555604051600181527fc7f505b2f371ae2175ee4913f4499e1f2633a7b5936321eed1cdaeb6115181d29060200160405180910390a15b5050505050565b60606000805b6007811015610a105760008181526001602081815260408084206001600160a01b03891685529091529091205460ff1615159003610a085781610a0481611688565b9250505b6001016109c2565b5060008167ffffffffffffffff811115610a2c57610a2c6112fb565b604051908082528060200260200182016040528015610a5f57816020015b6060815260200190600190039081610a4a5790505b5090506000805b6007811015610adb5760008181526001602081815260408084206001600160a01b038b1685529091529091205460ff1615159003610ad357610aa781610287565b838381518110610ab957610ab96114d8565b60200260200101819052508180610acf90611688565b9250505b600101610a66565b5090949350505050565b610aed610d6e565b6001600160a01b038116610b1757604051631e4fbdf760e01b81526000600482015260240161049f565b610b2081610dc9565b50565b60606000610b3083610e53565b600101905060008167ffffffffffffffff811115610b5057610b506112fb565b6040519080825280601f01601f191660200182016040528015610b7a576020820181803683370190505b5090508181016020015b600019016f181899199a1a9b1b9c1cb0b131b232b360811b600a86061a8153600a8504945084610b8457509392505050565b306001600160a01b037f0000000000000000000000000000000000000000000000000000000000000000161480610c3d57507f00000000000000000000000000000000000000000000000000000000000000006001600160a01b0316610c31600080516020611817833981519152546001600160a01b031690565b6001600160a01b031614155b156106c05760405163703e46dd60e11b815260040160405180910390fd5b610b20610d6e565b816001600160a01b03166352d1902d6040518163ffffffff1660e01b8152600401602060405180830381865afa925050508015610cbd575060408051601f3d908101601f19168201909252610cba918101906116af565b60015b610ce557604051634c9c8ce360e01b81526001600160a01b038316600482015260240161049f565b6000805160206118178339815191528114610d1657604051632a87526960e21b81526004810182905260240161049f565b610d208383610f2c565b505050565b306001600160a01b037f000000000000000000000000000000000000000000000000000000000000000016146106c05760405163703e46dd60e11b815260040160405180910390fd5b33610da07f9016d09d72d40fdae2fd8ceac6b6234c7706214fd39c1cd1e609a0528c199300546001600160a01b031690565b6001600160a01b0316146106c05760405163118cdaa760e01b815233600482015260240161049f565b7f9016d09d72d40fdae2fd8ceac6b6234c7706214fd39c1cd1e609a0528c19930080546001600160a01b031981166001600160a01b03848116918217845560405192169182907f8be0079c531659141344cd1fd0a4f28419497f9722a3daafe3b4186f6b6457e090600090a3505050565b610e42610f82565b610b2081610fcb565b6106c0610f82565b60008072184f03e93ff9f4daa797ed6e38ed64bf6a1f0160401b8310610e925772184f03e93ff9f4daa797ed6e38ed64bf6a1f0160401b830492506040015b6d04ee2d6d415b85acef81000000008310610ebe576d04ee2d6d415b85acef8100000000830492506020015b662386f26fc100008310610edc57662386f26fc10000830492506010015b6305f5e1008310610ef4576305f5e100830492506008015b6127108310610f0857612710830492506004015b60648310610f1a576064830492506002015b600a8310610f26576001015b92915050565b610f3582610fd3565b6040516001600160a01b038316907fbc7cd75a20ee27fd9adebab32041f755214dbc6bffa90cc0225b39da2e5c2d3b90600090a2805115610f7a57610d208282611038565b6103d96110ae565b7ff0c57e16840df040f15088dc2f81fe391c3923bec73e23a9662efc9c229c6a0054600160401b900460ff166106c057604051631afcd79f60e31b815260040160405180910390fd5b610aed610f82565b806001600160a01b03163b60000361100957604051634c9c8ce360e01b81526001600160a01b038216600482015260240161049f565b60008051602061181783398151915280546001600160a01b0319166001600160a01b0392909216919091179055565b6060600080846001600160a01b03168460405161105591906116c8565b600060405180830381855af49150503d8060008114611090576040519150601f19603f3d011682016040523d82523d6000602084013e611095565b606091505b50915091506110a58583836110cd565b95945050505050565b34156106c05760405163b398979f60e01b815260040160405180910390fd5b6060826110e2576110dd8261112c565b611125565b81511580156110f957506001600160a01b0384163b155b1561112257604051639996b31560e01b81526001600160a01b038516600482015260240161049f565b50805b9392505050565b80511561113c5780518082602001fd5b604051630a12f52160e11b815260040160405180910390fd5b82805482825590600052602060002090810192821561119b579160200282015b8281111561119b578251829061118b9082611734565b5091602001919060010190611175565b506111a79291506111f7565b5090565b8280548282559060005260206000209081019282156111eb579160200282015b828111156111eb578251829060ff169055916020019190600101906111cb565b506111a7929150611214565b808211156111a757600061120b8282611229565b506001016111f7565b5b808211156111a75760008155600101611215565b508054611235906114ee565b6000825580601f10611245575050565b601f016020900490600052602060002090810190610b209190611214565b60006020828403121561127557600080fd5b5035919050565b60005b8381101561129757818101518382015260200161127f565b50506000910152565b600081518084526112b881602086016020860161127c565b601f01601f19169290920160200192915050565b60208152600061112560208301846112a0565b80356001600160a01b03811681146112f657600080fd5b919050565b634e487b7160e01b600052604160045260246000fd5b6000806040838503121561132457600080fd5b61132d836112df565b9150602083013567ffffffffffffffff8082111561134a57600080fd5b818501915085601f83011261135e57600080fd5b813581811115611370576113706112fb565b604051601f8201601f19908116603f01168101908382118183101715611398576113986112fb565b816040528281528860208487010111156113b157600080fd5b8260208601602083013760006020848301015280955050505050509250929050565b6000806000604084860312156113e857600080fd5b6113f1846112df565b9250602084013567ffffffffffffffff8082111561140e57600080fd5b818601915086601f83011261142257600080fd5b81358181111561143157600080fd5b8760208260051b850101111561144657600080fd5b6020830194508093505050509250925092565b60006020828403121561146b57600080fd5b611125826112df565b600060208083016020845280855180835260408601915060408160051b87010192506020870160005b828110156114cb57603f198886030184526114b98583516112a0565b9450928501929085019060010161149d565b5092979650505050505050565b634e487b7160e01b600052603260045260246000fd5b600181811c9082168061150257607f821691505b60208210810361152257634e487b7160e01b600052602260045260246000fd5b50919050565b6000815161153a81856020860161127c565b9290920192915050565b6000808554611552816114ee565b6001828116801561156a576001811461157f576115ae565b60ff19841687528215158302870194506115ae565b8960005260208060002060005b858110156115a55781548a82015290840190820161158c565b50505082870194505b5050505061040560f31b815284516115cd81600284016020890161127c565b016115de60028201602f60f81b9052565b6115eb6003820185611528565b602960f81b81526001019695505050505050565b66021b7bab939b2960cd1b81526000825161162181600785016020870161127c565b6a2066696c6c65642075702160a81b6007939091019283015250601201919050565b7102cb7ba9030b63932b0b23c9031b437b9b2960751b81526000825161167081601285016020870161127c565b602160f81b6012939091019283015250601301919050565b6000600182016116a857634e487b7160e01b600052601160045260246000fd5b5060010190565b6000602082840312156116c157600080fd5b5051919050565b600082516116da81846020870161127c565b9190910192915050565b601f821115610d20576000816000526020600020601f850160051c8101602086101561170d5750805b601f850160051c820191505b8181101561172c57828155600101611719565b505050505050565b815167ffffffffffffffff81111561174e5761174e6112fb565b6117628161175c84546114ee565b846116e4565b602080601f831160018114611797576000841561177f5750858301515b600019600386901b1c1916600185901b17855561172c565b600085815260208120601f198616915b828110156117c6578886015182559484019460019091019084016117a7565b50858210156117e45787850151600019600388901b60f8161c191681555b5050505050600190811b0190555056fe53656375726520536f6674776172652053797374656d20446576656c6f706d656e74360894a13ba1a3210667c828492db98dca3e2076cc3735a920a3ca505d382bbc496e74726f64756374696f6e20746f204d6f62696c6520616e6420576972656c657373204e6574776f726b696e67a264697066735822122003e6e3ba0879b7a2b25bf8ebb81c92ff8d5e3b188437320fca8ef912287a4bfc64736f6c63430008180033",
  "linkReferences": {},
  "deployedLinkReferences": {}
}