{
  "_format": "hh-sol-artifact-1",
  "contractName": "SimpleBankV2",
  "sourceName": "contracts/SimpleBankV2.sol",
  "abi": [
    {
      "inputs": [],
      "name": "deposit",
      "outputs": [],
      "stateMutability": "payable",
      "type": "function"
    },
    {
      "inputs": [],
      "name": "getBalance",
      "outputs": [
        {
          "internalType": "uint256",
          "name": "",
          "type": "uint256"
        }
      ],
      "stateMutability": "view",
      "type": "function"
    },
    {
      "inputs": [],
      "name": "version",
      "outputs": [
        {
          "internalType": "uint256",
          "name": "",
          "type": "uint256"
        }
      ],
      "stateMutability": "pure",
      "type": "function"
    },
    {
      "inputs": [
        {
          "internalType": "uint256",
          "name": "amount",
          "type": "uint256"
        }
      ],
      "name": "withdraw",
      "outputs": [],
      "stateMutability": "nonpayable",
      "type": "function"
    }
  ],
  "bytecode": "0x608060405234801561001057600080fd5b5061027d806100206000396000f3fe60806040526004361061003f5760003560e01c806312065fe0146100445780632e1a7d4d1461007457806354fd4d5014610096578063d0e30db0146100aa575b600080fd5b34801561005057600080fd5b50336000908152602081905260409020545b60405190815260200160405180910390f35b34801561008057600080fd5b5061009461008f3660046101ec565b6100b2565b005b3480156100a257600080fd5b506002610062565b6100946101c6565b3360009081526020819052604090205481111561010e5760405162461bcd60e51b815260206004820152601560248201527424b739bab33334b1b4b2b73a103130b630b731b29760591b60448201526064015b60405180910390fd5b336000908152602081905260408120805483929061012d90849061021b565b9091555050604051600090339083908381818185875af1925050503d8060008114610174576040519150601f19603f3d011682016040523d82523d6000602084013e610179565b606091505b50509050806101c25760405162461bcd60e51b81526020600482015260156024820152742330b4b632b2103a379039b2b7321022ba3432b91760591b6044820152606401610105565b5050565b33600090815260208190526040812080543492906101e5908490610234565b9091555050565b6000602082840312156101fe57600080fd5b5035919050565b634e487b7160e01b600052601160045260246000fd5b8181038181111561022e5761022e610205565b92915050565b8082018082111561022e5761022e61020556fea2646970667358221220081bfd81d3a86da531c05f01c2c5b9c483a26d9b3c4c177c0cb768137f95933e64736f6c63430008180033",
  "linkReferences": {},
  "deployedLinkReferences": {}
}